{
  "_format": "hh-sol-artifact-1",
  "contractName": "BookLibrary",
  "sourceName": "contracts/BookLibrary.sol",
  "abi": [
    {
      "anonymous": false,
      "inputs": [
        {
          "indexed": false,
          "internalType": "string",
          "name": "title",
          "type": "string"
        },
        {
          "indexed": false,
          "internalType": "uint8",
          "name": "copies",
          "type": "uint8"
        }
      ],
      "name": "BookAdded",
      "type": "event"
    },
    {
      "anonymous": false,
      "inputs": [
        {
          "indexed": false,
          "internalType": "string",
          "name": "title",
          "type": "string"
        },
        {
          "indexed": false,
          "internalType": "address",
          "name": "user",
          "type": "address"
        }
      ],
      "name": "BookBorrowed",
      "type": "event"
    },
    {
      "anonymous": false,
      "inputs": [
        {
          "indexed": false,
          "internalType": "string",
          "name": "title",
          "type": "string"
        },
        {
          "indexed": false,
          "internalType": "address",
          "name": "user",
          "type": "address"
        }
      ],
      "name": "BookReturned",
      "type": "event"
    },
    {
      "anonymous": false,
      "inputs": [
        {
          "indexed": false,
          "internalType": "string",
          "name": "title",
          "type": "string"
        },
        {
          "indexed": false,
          "internalType": "uint8",
          "name": "copies",
          "type": "uint8"
        }
      ],
      "name": "BookUpdated",
      "type": "event"
    },
    {
      "anonymous": false,
      "inputs": [
        {
          "indexed": true,
          "internalType": "address",
          "name": "previousOwner",
          "type": "address"
        },
        {
          "indexed": true,
          "internalType": "address",
          "name": "newOwner",
          "type": "address"
        }
      ],
      "name": "OwnershipTransferred",
      "type": "event"
    },
    {
      "inputs": [
        {
          "internalType": "string",
          "name": "_title",
          "type": "string"
        },
        {
          "internalType": "uint8",
          "name": "_copies",
          "type": "uint8"
        }
      ],
      "name": "addBook",
      "outputs": [],
      "stateMutability": "nonpayable",
      "type": "function"
    },
    {
      "inputs": [
        {
          "internalType": "uint256",
          "name": "",
          "type": "uint256"
        }
      ],
      "name": "bookKeys",
      "outputs": [
        {
          "internalType": "bytes32",
          "name": "",
          "type": "bytes32"
        }
      ],
      "stateMutability": "view",
      "type": "function"
    },
    {
      "inputs": [
        {
          "internalType": "bytes32",
          "name": "",
          "type": "bytes32"
        }
      ],
      "name": "books",
      "outputs": [
        {
          "internalType": "string",
          "name": "title",
          "type": "string"
        },
        {
          "internalType": "uint8",
          "name": "copiesAvailable",
          "type": "uint8"
        },
        {
          "internalType": "bool",
          "name": "exists",
          "type": "bool"
        }
      ],
      "stateMutability": "view",
      "type": "function"
    },
    {
      "inputs": [
        {
          "internalType": "bytes32",
          "name": "_bookId",
          "type": "bytes32"
        }
      ],
      "name": "borrowBook",
      "outputs": [],
      "stateMutability": "nonpayable",
      "type": "function"
    },
    {
      "inputs": [],
      "name": "listAvailableBooks",
      "outputs": [
        {
          "components": [
            {
              "internalType": "string",
              "name": "title",
              "type": "string"
            },
            {
              "internalType": "uint8",
              "name": "copiesAvailable",
              "type": "uint8"
            },
            {
              "internalType": "address[]",
              "name": "borrowers",
              "type": "address[]"
            },
            {
              "internalType": "bool",
              "name": "exists",
              "type": "bool"
            }
          ],
          "internalType": "struct BookLibrary.Book[]",
          "name": "",
          "type": "tuple[]"
        }
      ],
      "stateMutability": "view",
      "type": "function"
    },
    {
      "inputs": [
        {
          "internalType": "bytes32",
          "name": "_bookId",
          "type": "bytes32"
        }
      ],
      "name": "listBookBorrowers",
      "outputs": [
        {
          "internalType": "address[]",
          "name": "",
          "type": "address[]"
        }
      ],
      "stateMutability": "view",
      "type": "function"
    },
    {
      "inputs": [],
      "name": "owner",
      "outputs": [
        {
          "internalType": "address",
          "name": "",
          "type": "address"
        }
      ],
      "stateMutability": "view",
      "type": "function"
    },
    {
      "inputs": [],
      "name": "renounceOwnership",
      "outputs": [],
      "stateMutability": "nonpayable",
      "type": "function"
    },
    {
      "inputs": [
        {
          "internalType": "bytes32",
          "name": "_bookId",
          "type": "bytes32"
        }
      ],
      "name": "returnBook",
      "outputs": [],
      "stateMutability": "nonpayable",
      "type": "function"
    },
    {
      "inputs": [
        {
          "internalType": "address",
          "name": "newOwner",
          "type": "address"
        }
      ],
      "name": "transferOwnership",
      "outputs": [],
      "stateMutability": "nonpayable",
      "type": "function"
    },
    {
      "inputs": [
        {
          "internalType": "address",
          "name": "",
          "type": "address"
        },
        {
          "internalType": "bytes32",
          "name": "",
          "type": "bytes32"
        }
      ],
      "name": "userBorrowedBooks",
      "outputs": [
        {
          "internalType": "bool",
          "name": "",
          "type": "bool"
        }
      ],
      "stateMutability": "view",
      "type": "function"
    }
  ],
  "bytecode": "0x608060405234801561001057600080fd5b5061001a3361001f565b61006f565b600080546001600160a01b038381166001600160a01b0319831681178455604051919092169283917f8be0079c531659141344cd1fd0a4f28419497f9722a3daafe3b4186f6b6457e09190a35050565b6112738061007e6000396000f3fe608060405234801561001057600080fd5b50600436106100a95760003560e01c80638da5cb5b116100715780638da5cb5b1461012b578063a054bf5014610146578063a63ac38e14610184578063d25a434814610197578063dae47ab0146101aa578063f2fde38b146101cb57600080fd5b806308ae3da9146100ae5780630c0dee70146100d757806312775c16146100f95780635c6f91d21461010e578063715018a614610123575b600080fd5b6100c16100bc366004610c73565b6101de565b6040516100ce9190610c8c565b60405180910390f35b6100ea6100e5366004610c73565b6102b4565b6040516100ce93929190610d29565b61010c610107366004610c73565b610365565b005b610116610467565b6040516100ce9190610d56565b61010c6106ec565b6000546040516001600160a01b0390911681526020016100ce565b610174610154366004610e44565b600360209081526000928352604080842090915290825290205460ff1681565b60405190151581526020016100ce565b61010c610192366004610e95565b610700565b61010c6101a5366004610c73565b61092f565b6101bd6101b8366004610c73565b610ab5565b6040519081526020016100ce565b61010c6101d9366004610f57565b610ad6565b60008181526002602052604090206003015460609060ff166102475760405162461bcd60e51b815260206004820181905260248201527f426f6f6b2077697468207468697320494420646f6573206e6f7420657869737460448201526064015b60405180910390fd5b600082815260026020818152604092839020909101805483518184028101840190945280845290918301828280156102a857602002820191906000526020600020905b81546001600160a01b0316815260019091019060200180831161028a575b50505050509050919050565b6002602052600090815260409020805481906102cf90610f79565b80601f01602080910402602001604051908101604052809291908181526020018280546102fb90610f79565b80156103485780601f1061031d57610100808354040283529160200191610348565b820191906000526020600020905b81548152906001019060200180831161032b57829003601f168201915b505050506001830154600390930154919260ff9081169216905083565b6000818152600260209081526040808320338452600383528184208585529092529091205460ff166103d95760405162461bcd60e51b815260206004820152601f60248201527f596f752068617665206e6f7420626f72726f776564207468697320626f6f6b00604482015260640161023e565b3360009081526003602090815260408083208584529091528120805460ff1916905560018201805460ff169161040e83610fc9565b91906101000a81548160ff021916908360ff160217905550507ff1b2f3d040d6eaa2f46fc6969cded1c5e090aed7039a4e447f1f02aeda4067c5816000013360405161045b929190610fe8565b60405180910390a15050565b60606000805b6001548110156104d557600260006001838154811061048e5761048e611082565b6000918252602080832090910154835282019290925260400190206001015460ff16156104c357816104bf81611098565b9250505b806104cd81611098565b91505061046d565b5060008167ffffffffffffffff8111156104f1576104f1610e6e565b60405190808252806020026020018201604052801561054457816020015b6040805160808101825260608082526000602080840182905293830182905290820152825260001990920191018161050f5790505b5090506000805b838110156106e35760006001828154811061056857610568611082565b90600052602060002001549050600260008281526020019081526020016000206040518060800160405290816000820180546105a390610f79565b80601f01602080910402602001604051908101604052809291908181526020018280546105cf90610f79565b801561061c5780601f106105f15761010080835404028352916020019161061c565b820191906000526020600020905b8154815290600101906020018083116105ff57829003601f168201915b5050509183525050600182015460ff16602080830191909152600283018054604080518285028101850182528281529401939283018282801561068857602002820191906000526020600020905b81546001600160a01b0316815260019091019060200180831161066a575b50505091835250506003919091015460ff16151560209091015284518590859081106106b6576106b6611082565b602002602001018190525082806106cc90611098565b9350505080806106db90611098565b91505061054b565b50909392505050565b6106f4610b4f565b6106fe6000610ba9565b565b610708610b4f565b8181600082905060008151118015610723575060008260ff16115b6107685760405162461bcd60e51b8152602060048201526016602482015275109bdbdac819185d18481a5cc81b9bdd081d985b1a5960521b604482015260640161023e565b60008560405160200161077b91906110b1565b60408051601f19818403018152918152815160209283012060008181526002909352912060038101549192509060ff1615610820576001810180548791906000906107ca90849060ff166110cd565b92506101000a81548160ff021916908360ff1602179055507ff75007f2dd64ee5ad7f654595f28cd816dc5df570ef45efe95bcce709a1bfc8587876040516108139291906110ec565b60405180910390a1610926565b6040805160808101825288815260ff8816602080830191909152606082840181905260018382015260008681526002909252929020815182919081906108669082611160565b5060208281015160018301805460ff191660ff909216919091179055604083015180516108999260028501920190610bf9565b50606091909101516003909101805460ff19169115159190911790556001805480820182556000919091527fb10e2d527612073b26eecdfd717e6a320cf44b4afac2b0732d9fcbe2b7fa0cf6018490556040517f03ae856e3514fa7a8f4bbe40129bcb18d202785cba3269f1aeba6dd371db23a29061091b908b908b906110ec565b60405180910390a150505b50505050505050565b60008181526002602052604081206001810154909160ff909116900361098d5760405162461bcd60e51b81526020600482015260136024820152724e6f20636f7069657320617661696c61626c6560681b604482015260640161023e565b33600090815260036020908152604080832085845290915290205460ff1615610a045760405162461bcd60e51b815260206004820152602360248201527f596f75206861766520616c726561647920626f72726f776564207468697320626044820152626f6f6b60e81b606482015260840161023e565b3360009081526003602090815260408083208584529091528120805460ff191660019081179091558201805460ff1691610a3d83611220565b825460ff9182166101009390930a928302919092021990911617905550600281018054600181018255600091825260209091200180546001600160a01b031916339081179091556040517f469d7b1cb358edcbc2c8e949b8a6598672e51661418984c55d85a904a4b220539161045b91849190610fe8565b60018181548110610ac557600080fd5b600091825260209091200154905081565b610ade610b4f565b6001600160a01b038116610b435760405162461bcd60e51b815260206004820152602660248201527f4f776e61626c653a206e6577206f776e657220697320746865207a65726f206160448201526564647265737360d01b606482015260840161023e565b610b4c81610ba9565b50565b6000546001600160a01b031633146106fe5760405162461bcd60e51b815260206004820181905260248201527f4f776e61626c653a2063616c6c6572206973206e6f7420746865206f776e6572604482015260640161023e565b600080546001600160a01b038381166001600160a01b0319831681178455604051919092169283917f8be0079c531659141344cd1fd0a4f28419497f9722a3daafe3b4186f6b6457e09190a35050565b828054828255906000526020600020908101928215610c4e579160200282015b82811115610c4e57825182546001600160a01b0319166001600160a01b03909116178255602090920191600190910190610c19565b50610c5a929150610c5e565b5090565b5b80821115610c5a5760008155600101610c5f565b600060208284031215610c8557600080fd5b5035919050565b6020808252825182820181905260009190848201906040850190845b81811015610ccd5783516001600160a01b031683529284019291840191600101610ca8565b50909695505050505050565b60005b83811015610cf4578181015183820152602001610cdc565b50506000910152565b60008151808452610d15816020860160208601610cd9565b601f01601f19169290920160200192915050565b606081526000610d3c6060830186610cfd565b60ff94909416602083015250901515604090910152919050565b60006020808301818452808551808352604092508286019150828160051b8701018488016000805b84811015610e1957603f198a8503018652825160808151818752610da482880182610cfd565b838c015160ff16888d01528a8401518882038c8a01528051808352908d019350869250908c01905b80831015610df55783516001600160a01b03168252928c019260019290920191908c0190610dcc565b50606093840151151597909301969096525095880195935091870191600101610d7e565b50919998505050505050505050565b80356001600160a01b0381168114610e3f57600080fd5b919050565b60008060408385031215610e5757600080fd5b610e6083610e28565b946020939093013593505050565b634e487b7160e01b600052604160045260246000fd5b803560ff81168114610e3f57600080fd5b60008060408385031215610ea857600080fd5b823567ffffffffffffffff80821115610ec057600080fd5b818501915085601f830112610ed457600080fd5b813581811115610ee657610ee6610e6e565b604051601f8201601f19908116603f01168101908382118183101715610f0e57610f0e610e6e565b81604052828152886020848701011115610f2757600080fd5b826020860160208301376000602084830101528096505050505050610f4e60208401610e84565b90509250929050565b600060208284031215610f6957600080fd5b610f7282610e28565b9392505050565b600181811c90821680610f8d57607f821691505b602082108103610fad57634e487b7160e01b600052602260045260246000fd5b50919050565b634e487b7160e01b600052601160045260246000fd5b600060ff821660ff8103610fdf57610fdf610fb3565b60010192915050565b604081526000808454610ffa81610f79565b806040860152606060018084166000811461101c576001811461103657611067565b60ff1985168884015283151560051b880183019550611067565b8960005260208060002060005b8681101561105e5781548b8201870152908401908201611043565b8a018501975050505b505050506001600160a01b0385166020850152509050610f72565b634e487b7160e01b600052603260045260246000fd5b6000600182016110aa576110aa610fb3565b5060010190565b600082516110c3818460208701610cd9565b9190910192915050565b60ff81811683821601908111156110e6576110e6610fb3565b92915050565b6040815260006110ff6040830185610cfd565b905060ff831660208301529392505050565b601f82111561115b57600081815260208120601f850160051c810160208610156111385750805b601f850160051c820191505b8181101561115757828155600101611144565b5050505b505050565b815167ffffffffffffffff81111561117a5761117a610e6e565b61118e816111888454610f79565b84611111565b602080601f8311600181146111c357600084156111ab5750858301515b600019600386901b1c1916600185901b178555611157565b600085815260208120601f198616915b828110156111f2578886015182559484019460019091019084016111d3565b50858210156112105787850151600019600388901b60f8161c191681555b5050505050600190811b01905550565b600060ff82168061123357611233610fb3565b600019019291505056fea2646970667358221220413bdb732b4d05001a4076c8f4a595ecbea0ca83d6861eefe87ef56bd982079d64736f6c63430008130033",
  "linkReferences": {},
  "deployedLinkReferences": {}
}